{
  "address": "0x5FbDB2315678afecb367f032d93F642f64180aa3",
  "abi": [
    {
      "anonymous": false,
      "inputs": [
        {
          "indexed": true,
          "internalType": "address",
          "name": "author",
          "type": "address"
        },
        {
          "indexed": false,
          "internalType": "string",
          "name": "description",
          "type": "string"
        },
        {
          "indexed": false,
          "internalType": "uint256",
          "name": "price",
          "type": "uint256"
        },
        {
          "indexed": false,
          "internalType": "uint256",
          "name": "id",
          "type": "uint256"
        },
        {
          "indexed": false,
          "internalType": "bool",
          "name": "isFinished",
          "type": "bool"
        }
      ],
      "name": "jobAdded",
      "type": "event"
    },
    {
      "anonymous": false,
      "inputs": [
        {
          "indexed": true,
          "internalType": "address",
          "name": "author",
          "type": "address"
        },
        {
          "indexed": true,
          "internalType": "address",
          "name": "worker",
          "type": "address"
        },
        {
          "indexed": false,
          "internalType": "uint256",
          "name": "id",
          "type": "uint256"
        },
        {
          "indexed": false,
          "internalType": "uint256",
          "name": "pricePaid",
          "type": "uint256"
        }
      ],
      "name": "jobIsFinishedAndPaid",
      "type": "event"
    },
    {
      "anonymous": false,
      "inputs": [
        {
          "indexed": true,
          "internalType": "address",
          "name": "worker",
          "type": "address"
        },
        {
          "indexed": false,
          "internalType": "uint256",
          "name": "id",
          "type": "uint256"
        }
      ],
      "name": "jobTaken",
      "type": "event"
    },
    {
      "inputs": [
        {
          "internalType": "string",
          "name": "_description",
          "type": "string"
        }
      ],
      "name": "addJob",
      "outputs": [],
      "stateMutability": "payable",
      "type": "function"
    },
    {
      "inputs": [
        {
          "internalType": "uint256",
          "name": "_id",
          "type": "uint256"
        }
      ],
      "name": "setIsFinishedAndPay",
      "outputs": [],
      "stateMutability": "nonpayable",
      "type": "function"
    },
    {
      "inputs": [
        {
          "internalType": "uint256",
          "name": "_id",
          "type": "uint256"
        }
      ],
      "name": "takeJob",
      "outputs": [],
      "stateMutability": "nonpayable",
      "type": "function"
    }
  ],
  "transactionHash": "0xa1704b9e172cc81efe87a87bece905786f3c4d35e810efd0a7e1fd67208b1419",
  "args": [],
  "numDeployments": 1,
  "solcInputHash": "bf7160e9477b2eec8b3adc4ea2691cbf",
  "bytecode": "0x608060405234801561001057600080fd5b5061116c806100206000396000f3fe6080604052600436106100345760003560e01c806375cb0ac8146100395780637e8762f7146100555780639330d9bc1461007e575b600080fd5b610053600480360381019061004e9190610914565b6100a7565b005b34801561006157600080fd5b5061007c60048036038101906100779190610997565b6102af565b005b34801561008a57600080fd5b506100a560048036038101906100a09190610997565b610689565b005b60006040518060a001604052803373ffffffffffffffffffffffffffffffffffffffff168152602001600073ffffffffffffffffffffffffffffffffffffffff16815260200184848080601f016020809104026020016040519081016040528093929190818152602001838380828437600081840152601f19601f820116905080830192505050505050508152602001348152602001600015158152509050600081908060018154018082558091505060019003906000526020600020906005020160009091909190915060008201518160000160006101000a81548173ffffffffffffffffffffffffffffffffffffffff021916908373ffffffffffffffffffffffffffffffffffffffff16021790555060208201518160010160006101000a81548173ffffffffffffffffffffffffffffffffffffffff021916908373ffffffffffffffffffffffffffffffffffffffff16021790555060408201518160020190816102159190610c0a565b506060820151816003015560808201518160040160006101000a81548160ff02191690831515021790555050503373ffffffffffffffffffffffffffffffffffffffff167f55f4e04c8a8ba099607e3993996c0b30c9d5ff7618c0d8d31e6e7c9ffa60c094848434600160008054905061028f9190610d0b565b60006040516102a2959493929190610dc7565b60405180910390a2505050565b600073ffffffffffffffffffffffffffffffffffffffff16600082815481106102db576102da610e15565b5b906000526020600020906005020160010160009054906101000a900473ffffffffffffffffffffffffffffffffffffffff1673ffffffffffffffffffffffffffffffffffffffff1603610363576040517f08c379a000000000000000000000000000000000000000000000000000000000815260040161035a90610e90565b60405180910390fd5b6000818154811061037757610376610e15565b5b906000526020600020906005020160000160009054906101000a900473ffffffffffffffffffffffffffffffffffffffff1673ffffffffffffffffffffffffffffffffffffffff163373ffffffffffffffffffffffffffffffffffffffff1614610416576040517f08c379a000000000000000000000000000000000000000000000000000000000815260040161040d90610f22565b60405180910390fd5b600080828154811061042b5761042a610e15565b5b906000526020600020906005020160010160009054906101000a900473ffffffffffffffffffffffffffffffffffffffff1673ffffffffffffffffffffffffffffffffffffffff166000838154811061048757610486610e15565b5b9060005260206000209060050201600301546040516104a590610f73565b60006040518083038185875af1925050503d80600081146104e2576040519150601f19603f3d011682016040523d82523d6000602084013e6104e7565b606091505b5050905080156105345760016000838154811061050757610506610e15565b5b906000526020600020906005020160040160006101000a81548160ff02191690831515021790555061056f565b6040517f08c379a000000000000000000000000000000000000000000000000000000000815260040161056690610ffa565b60405180910390fd5b6000828154811061058357610582610e15565b5b906000526020600020906005020160010160009054906101000a900473ffffffffffffffffffffffffffffffffffffffff1673ffffffffffffffffffffffffffffffffffffffff16600083815481106105df576105de610e15565b5b906000526020600020906005020160000160009054906101000a900473ffffffffffffffffffffffffffffffffffffffff1673ffffffffffffffffffffffffffffffffffffffff167fc9f82f3ab594a0fe3b2a0a3544eb95e67e50437ea6c05bbfeb8414bf42b259fa846000868154811061065d5761065c610e15565b5b90600052602060002090600502016003015460405161067d92919061101a565b60405180910390a35050565b6000818154811061069d5761069c610e15565b5b906000526020600020906005020160000160009054906101000a900473ffffffffffffffffffffffffffffffffffffffff1673ffffffffffffffffffffffffffffffffffffffff163373ffffffffffffffffffffffffffffffffffffffff160361073c576040517f08c379a00000000000000000000000000000000000000000000000000000000081526004016107339061108f565b60405180910390fd5b600073ffffffffffffffffffffffffffffffffffffffff166000828154811061076857610767610e15565b5b906000526020600020906005020160010160009054906101000a900473ffffffffffffffffffffffffffffffffffffffff1673ffffffffffffffffffffffffffffffffffffffff16146107f0576040517f08c379a00000000000000000000000000000000000000000000000000000000081526004016107e7906110fb565b60405180910390fd5b336000828154811061080557610804610e15565b5b906000526020600020906005020160010160006101000a81548173ffffffffffffffffffffffffffffffffffffffff021916908373ffffffffffffffffffffffffffffffffffffffff1602179055503373ffffffffffffffffffffffffffffffffffffffff167f570fece144bab0037b8b44f5dc22ce6feffce4bae7b0eaf3de66f0730ee244748260405161089a919061111b565b60405180910390a250565b600080fd5b600080fd5b600080fd5b600080fd5b600080fd5b60008083601f8401126108d4576108d36108af565b5b8235905067ffffffffffffffff8111156108f1576108f06108b4565b5b60208301915083600182028301111561090d5761090c6108b9565b5b9250929050565b6000806020838503121561092b5761092a6108a5565b5b600083013567ffffffffffffffff811115610949576109486108aa565b5b610955858286016108be565b92509250509250929050565b6000819050919050565b61097481610961565b811461097f57600080fd5b50565b6000813590506109918161096b565b92915050565b6000602082840312156109ad576109ac6108a5565b5b60006109bb84828501610982565b91505092915050565b600081519050919050565b7f4e487b7100000000000000000000000000000000000000000000000000000000600052604160045260246000fd5b7f4e487b7100000000000000000000000000000000000000000000000000000000600052602260045260246000fd5b60006002820490506001821680610a4557607f821691505b602082108103610a5857610a576109fe565b5b50919050565b60008190508160005260206000209050919050565b60006020601f8301049050919050565b600082821b905092915050565b600060088302610ac07fffffffffffffffffffffffffffffffffffffffffffffffffffffffffffffffff82610a83565b610aca8683610a83565b95508019841693508086168417925050509392505050565b6000819050919050565b6000610b07610b02610afd84610961565b610ae2565b610961565b9050919050565b6000819050919050565b610b2183610aec565b610b35610b2d82610b0e565b848454610a90565b825550505050565b600090565b610b4a610b3d565b610b55818484610b18565b505050565b5b81811015610b7957610b6e600082610b42565b600181019050610b5b565b5050565b601f821115610bbe57610b8f81610a5e565b610b9884610a73565b81016020851015610ba7578190505b610bbb610bb385610a73565b830182610b5a565b50505b505050565b600082821c905092915050565b6000610be160001984600802610bc3565b1980831691505092915050565b6000610bfa8383610bd0565b9150826002028217905092915050565b610c13826109c4565b67ffffffffffffffff811115610c2c57610c2b6109cf565b5b610c368254610a2d565b610c41828285610b7d565b600060209050601f831160018114610c745760008415610c62578287015190505b610c6c8582610bee565b865550610cd4565b601f198416610c8286610a5e565b60005b82811015610caa57848901518255600182019150602085019450602081019050610c85565b86831015610cc75784890151610cc3601f891682610bd0565b8355505b6001600288020188555050505b505050505050565b7f4e487b7100000000000000000000000000000000000000000000000000000000600052601160045260246000fd5b6000610d1682610961565b9150610d2183610961565b9250828203905081811115610d3957610d38610cdc565b5b92915050565b600082825260208201905092915050565b82818337600083830152505050565b6000601f19601f8301169050919050565b6000610d7c8385610d3f565b9350610d89838584610d50565b610d9283610d5f565b840190509392505050565b610da681610961565b82525050565b60008115159050919050565b610dc181610dac565b82525050565b60006080820190508181036000830152610de2818789610d70565b9050610df16020830186610d9d565b610dfe6040830185610d9d565b610e0b6060830184610db8565b9695505050505050565b7f4e487b7100000000000000000000000000000000000000000000000000000000600052603260045260246000fd5b7f4a6f62206e6f742074616b656e20796574000000000000000000000000000000600082015250565b6000610e7a601183610d3f565b9150610e8582610e44565b602082019050919050565b60006020820190508181036000830152610ea981610e6d565b9050919050565b7f596f7520617265206e6f742074686520617574686f72206f662074686973206a60008201527f6f62000000000000000000000000000000000000000000000000000000000000602082015250565b6000610f0c602283610d3f565b9150610f1782610eb0565b604082019050919050565b60006020820190508181036000830152610f3b81610eff565b9050919050565b600081905092915050565b50565b6000610f5d600083610f42565b9150610f6882610f4d565b600082019050919050565b6000610f7e82610f50565b9150819050919050565b7f54686520776f726b657220686173206e6f74206265656e20706169642c20726560008201527f76657274696e6720746865207472616e73616374696f6e2e2e2e000000000000602082015250565b6000610fe4603a83610d3f565b9150610fef82610f88565b604082019050919050565b6000602082019050818103600083015261101381610fd7565b9050919050565b600060408201905061102f6000830185610d9d565b61103c6020830184610d9d565b9392505050565b7f54686520617574686f722063616e6e6f742074616b6520746865206a6f620000600082015250565b6000611079601e83610d3f565b915061108482611043565b602082019050919050565b600060208201905081810360008301526110a88161106c565b9050919050565b7f4a6f6220616c72656164792074616b656e000000000000000000000000000000600082015250565b60006110e5601183610d3f565b91506110f0826110af565b602082019050919050565b60006020820190508181036000830152611114816110d8565b9050919050565b60006020820190506111306000830184610d9d565b9291505056fea264697066735822122046075459213f8e1ac023acd927104a0ebbd76950acfde13389d52ee55acacf4f64736f6c63430008110033",
  "devdoc": {
    "author": "Ben BK",
    "kind": "dev",
    "methods": {
      "addJob(string)": {
        "params": {
          "_description": "the complete description of the job"
        }
      },
      "setIsFinishedAndPay(uint256)": {
        "params": {
          "_id": "the id of the job in the jobs array"
        }
      },
      "takeJob(uint256)": {
        "params": {
          "_id": "the index of the job in the jobs array"
        }
      }
    },
    "title": "A Mini Job Smart contract",
    "version": 1
  },
  "userdoc": {
    "kind": "user",
    "methods": {
      "addJob(string)": {
        "notice": "Allows to add a new job "
      },
      "setIsFinishedAndPay(uint256)": {
        "notice": "Allows to end the job and to pay the worker"
      },
      "takeJob(uint256)": {
        "notice": "Allows to take the job"
      }
    },
    "version": 1
  },
  "storageLayout": {
    "storage": [
      {
        "astId": 17,
        "contract": "contracts/Job.sol:Jobs",
        "label": "jobs",
        "offset": 0,
        "slot": "0",
        "type": "t_array(t_struct(Job)13_storage)dyn_storage"
      }
    ],
    "types": {
      "t_address": {
        "encoding": "inplace",
        "label": "address",
        "numberOfBytes": "20"
      },
      "t_array(t_struct(Job)13_storage)dyn_storage": {
        "base": "t_struct(Job)13_storage",
        "encoding": "dynamic_array",
        "label": "struct Jobs.Job[]",
        "numberOfBytes": "32"
      },
      "t_bool": {
        "encoding": "inplace",
        "label": "bool",
        "numberOfBytes": "1"
      },
      "t_string_storage": {
        "encoding": "bytes",
        "label": "string",
        "numberOfBytes": "32"
      },
      "t_struct(Job)13_storage": {
        "encoding": "inplace",
        "label": "struct Jobs.Job",
        "members": [
          {
            "astId": 4,
            "contract": "contracts/Job.sol:Jobs",
            "label": "author",
            "offset": 0,
            "slot": "0",
            "type": "t_address"
          },
          {
            "astId": 6,
            "contract": "contracts/Job.sol:Jobs",
            "label": "worker",
            "offset": 0,
            "slot": "1",
            "type": "t_address"
          },
          {
            "astId": 8,
            "contract": "contracts/Job.sol:Jobs",
            "label": "description",
            "offset": 0,
            "slot": "2",
            "type": "t_string_storage"
          },
          {
            "astId": 10,
            "contract": "contracts/Job.sol:Jobs",
            "label": "price",
            "offset": 0,
            "slot": "3",
            "type": "t_uint256"
          },
          {
            "astId": 12,
            "contract": "contracts/Job.sol:Jobs",
            "label": "isFinished",
            "offset": 0,
            "slot": "4",
            "type": "t_bool"
          }
        ],
        "numberOfBytes": "160"
      },
      "t_uint256": {
        "encoding": "inplace",
        "label": "uint256",
        "numberOfBytes": "32"
      }
    }
  }
}